:020000040800F2
:1000000000500020AD02000851020008570200080D
:100010005D02000863020008690200080000000099
:100020000000000000000000000000006F02000857
:100030007B0200080000000087020008930200080D
:10004000F5020008F5020008F5020008F5020008B4
:10005000F5020008F5020008F5020008F5020008A4
:10006000F5020008F5020008F5020008F502000894
:10007000F5020008F5020008F5020008F502000884
:10008000F5020008F5020008F5020008F502000874
:10009000F5020008F5020008F5020008F502000864
:1000A000F5020008F5020008F5020008F502000854
:1000B000F5020008F5020008F5020008F502000844
:1000C000F5020008F5020008F5020008F502000834
:1000D000F5020008F5020008F5020008F502000824
:1000E000F5020008F5020008F50200080000000013
:1000F0000000000000000000000000000000000000
:0C01000000000000000000005FF808F1A3
:10010C0010B5054C237833B9044B13B10448AFF345
:10011C0000800123237010BD0400002000000000AB
:10012C006403000808B5034B1BB103490348AFF344
:10013C00008008BD000000000800002064030008D7
:10014C0080B485B000AFF860B9601346FB71FB68F2
:10015C00BA681A60FB68FA791A71FB681B799B0004
:10016C0003229A40FB681B681A60FB681B791A46CD
:10017C0001239340DA43FB681B68DA60FB6818467E
:10018C001437BD4680BC704780B483B000AF786034
:10019C007B681B791A46012303FA02F27B681B6801
:1001AC00DA6000BF0C37BD4680BC704780B483B0AA
:1001BC0000AF78607B681B680022DA6000BF0C37E8
:1001CC00BD4680BC7047000080B584B000AF194BB1
:1001DC0004229A613B46022217491846FFF7B0FFEA
:1001EC00164B4FF44C725A60144B4FF40052DA60B9
:1001FC003B461846FFF7C8FF0023FB60FB68104A1C
:10020C00934204DC00BFFB680133FB60F6E70B4B49
:10021C000022DA603B461846FFF7C8FF0023BB609C
:10022C00BB68074A9342DFDC00BFBB680133BB608D
:10023C00F6E700BF0010024000080140001001402A
:10024C003F420F0080B400AFFEE780B400AFFEE782
:10025C0080B400AFFEE780B400AFFEE780B400AF1F
:10026C00FEE780B400AF00BFBD4680BC704780B4D1
:10027C0000AF00BFBD4680BC704780B400AF00BF6C
:10028C00BD4680BC704780B500AF00F02FF800BFB2
:10029C0080BD80B400AF00BFBD4680BC704700007D
:1002AC000C480D490D4A002302E0D458C4500433C5
:1002BC00C4188C42F9D30A4A0A4C002301E013609B
:1002CC000432A242FBD3FFF7E4FF00F021F8FFF762
:1002DC007BFF70470000002004000020840300080E
:1002EC000400002024000020FEE7000080B400AFD2
:1002FC00054B1B781A46054B1B681344034A1360C5
:10030C0000BFBD4680BC70470000002020000020CC
:10031C0070B500260C4D0D4C641BA410A64209D1DF
:10032C0000F01AF800260A4D0A4C641BA410A642D1
:10033C0005D170BD55F8043B98470136EEE755F8EA
:10034C00043B98470136F2E77C0300087C03000865
:10035C007C03000880030008F8B500BFF8BC08BC9B
:10036C009E467047F8B500BFF8BC08BC9E46704767
:04037C003101000843
:040380000D01000863
:040384000100000074
:04000005080002AD40
:00000001FF
